:03000000020FA646
:0C0FA600787FE4F6D8FD75816C020FED39
:1012F30075213975221A75230A75240A7525017516
:101303002613752704E4F5287529141217301213D0
:10131300ED121582120B3F1216A6120C6D12001E4F
:0213230080F256
:10166A00D3EF9400EE940040147D6E7C00ED1D7063
:0D167A00011CED4C70F7EF1F70E61E80E3C1
:011687002240
:10144B00C2B77F467E00EF1FAC0670011E4C70F6D4
:10145B00D2B7E4FEFF30B7110FBF00010ED3EF94EC
:0B146B0088EE941340EF7F00227F0109
:011476002253
:0C11F40012144B7F017E0012166A7FCCA3
:10120000E4FBFAC2B7050AE50A70020509EF13927A
:10121000B7750900750A06E50A150AAC09700215CA
:10122000094C70F3D2B7EFC313FF0BBB00010AEBFD
:0512300064084A70CEC5
:011235002296
:101278007D087C00C2B70FBF0000D2B70FBF0000C7
:101288000FBF0000A2B7E433C43333335480FBE903
:10129800C3134BF97E007F04EF1FAA0670011E4A94
:0D12A80070F6ED1D70011CED4C70C9AF011A
:0112B5002216
:08188C001211F47F4402120066
:081894001211F47FBE021200E4
:10174900E4FFFE12188C1218941212788F081212E4
:0617590078EFFEE508FF39
:01175F002267
:1010320001060126014A015D018801B801EE020B99
:10104200024B029302BA0310037003DC04170497E5
:1010520005270575062006E007B8F88CF95CFA1535
:10106200FA68FB05FB90FC0CFC44FCADFD0AFD3468
:10107200FD83FDC8FE06FE23FE57FE85FE9BFEC2D3
:0C108200FEE4FF0308080C0C0404040446
:0E155F00C181C100015BFF015C000259000068
:10180800D2AF438901855B8C855C8AD2A9D28C22B0
:0C184000438910758DFF758BF6D2AB222A
:10160A00E4FDFCE4FBFAC3EB9FEA9E50070BBB0028
:0F161A00010A80F20DBD00010CED646E4C70E40E
:01162900229E
:020E63008F09F5
:100E6500E4FDFCFFFEF55EE55EC394044003020F5E
:100E7500073000FDC200E55A4559705AE55E9010ED
:100E85008A93FF7E00AD097C00120ABDC004A90546
:100E9500AA06AB07E55D25E02432F582E43410F5BA
:100EA50083E493FE740193FF7C007DF0120ABDD0AC
:100EB50000120A1DAC06AD07ED7802CEC313CE13A2
:100EC500D8F9FFC3ED9FFFEC9EFED201055AE55A06
:100ED500709505598091E55AB5050FE559B5040A90
:100EE500E4F559F55A055E020E6C055AE55A70028D
:100EF50005596F7003E5596E6003020E6CC201025D
:020F05000E6C70
:010F070022C7
:0B1858001218081218407F5A020E639D
:03000B000217E4F5
:1017E400855B8C855C8AD200D28E300103B2A33231
:0317F400D2A3324B
:03001B000210DAF6
:1010DA00C0E0C083C082C0D075D000C004C005C2C1
:1010EA008EE55A45597020E55E9010869314F55D99
:1010FA0025E0245CF582E43410F583E493FC740162
:10110A0093FDECF55B8D5C758DFF758BF6D005D084
:0A111A0004D0D0D082D083D0E032A0
:0E18180081838587898B8D80828486888A8C67
:10171700E4FEC2B6EFA806088002C313D8FC1392F2
:08172700B400D2B60EBE08EAC0
:01172F002297
:1016C300E4FFFE30B403430780EFC313FFD2B60039
:0B16D30000C2B60EBE08ECC2B400005E
:0116DE0022E9
:1015C800C2B500C2B600C2B400D2B500121717AF38
:1015D80005121717C2B50000D2B60000D2B4000039
:0115E80022E0
:1015E900E4FEC2B500C2B600C2B400D2B5001217FB
:1015F900171216C3C2B50000D2B60000D2B400005B
:0116090022BE
:101325001218A4C2B500C2B600C2B400D2B5007F7F
:10133500BE121717E4FD74482DF8E6FF1217170DB6
:10134500BD08F3C2B50000D2B60000D2B400000259
:02135500186717
:101357001218A4C2B500C2B600C2B400D2B5007F4D
:10136700BF121717E4FD1216C374482DF8A6070D10
:10137700BD08F3C2B50000D2B60000D2B400000227
:021387001867E5
:101389001218A4C2B500C2B600C2B400D2B5007F1B
:10139900FE121717E4FD74292DF8E6FF1217170D31
:1013A900BD1FF3C2B50000D2B60000D2B4000002DE
:0213B9001867B3
:1013BB001218A4C2B500C2B600C2B400D2B5007FE9
:1013CB00FF121717E4FD1216C374292DF8A6070D8B
:1013DB00BD1FF3C2B50000D2B60000D2B4000002AC
:0213EB00186781
:04186300FD1215C895
:071867007D807F8E0215C891
:0718A400E4FD7F8E0215C870
:101760007F811215E9EF5470C4540F75F00AA4FE7E
:05177000EF540F2EFFF5
:011775002251
:101776007F831215E9EF5470C4540F75F00AA4FE66
:05178600EF540F2EFFDF
:01178B00223B
:1012B6007F851215E9EF30E7165410C4540F75F008
:1012C6000AA4FEEF5420C413540775F00C8015EFE2
:1012D6005410C4540F75F00AA4FEEF5420C41354DE
:0C12E6000775F014A42EFEEF540F2EFF2D
:0112F20022D9
:10178C007F871215E9EF5430C4540F75F00AA4FE8C
:05179C00EF540F2EFFC9
:0117A1002225
:1017A2007F891215E9EF5410C4540F75F00AA4FE94
:0517B200EF540F2EFFB3
:0117B700220F
:09186E007F8B1215E9EF5407FF0E
:01187700224E
:1017B8007F8D1215E9EF54F0C4540F75F00AA4FE9A
:0517C800EF540F2EFF9D
:0117CD0022F9
:1014F300AC07ECD3943B501B1218A4EC75F00A8490
:101503005407C454F0FFEC75F00A84E5F04F7F8074
:041513001218632225
:10151700AC07ECD3943B501B1218A4EC75F00A846B
:101527005407C454F0FFEC75F00A84E5F04F7F824E
:041537001218632201
:02108E00AC07AD
:10109000E4FB7F851215E9EF30E7117B80ECD394F8
:1010A0000C401643032074F42CFC800DECD39414F4
:1010B000400743032074EC2CFCECD3940940034319
:1010C0000310EC75F00A84E5F0540F42031218A4E3
:0A10D000AD037F841215C8021867F3
:1014CB00AC07ECD3941F501F1218A4EC75F00A84D0
:1014DB005403C454F0FFEC75F00A84E5F04FFD7F24
:0814EB00861215C812186722D1
:10141D00AC07ECD3940C5025ECC39401401F12186B
:10142D00A4EC75F00A845401C454F0FFEC75F00A75
:0E143D0084E5F04FFD7F881215C81218672253
:10168800AC07ECD394075015ECC39401400F121823
:0E169800A4EC5407FD7F8A1215C812186722B1
:10147700AC07ECD3946350211218A4EC75F00A84DE
:10148700540FC454F0FFEC75F00A84E5F0540F4F85
:0A149700FD7F8C1215C812186722A1
:10158200AF211214F3AF22121517AF2312108EAF30
:10159200241214CBAF2512141DAF26121477AF27D5
:0315A200021688A6
:10153B001217608F211217768F221212B68F231279
:10154B00178C8F241217A28F251217B88F261218FB
:04155B006E8F272246
:10162A0053756E004D6F6E0054686500576564000F
:10163A0054687500467269005361740045726F0000
:0C156D000154000157000450001C0A004B
:10001E001218AB1218B2E55570030203F6121582D0
:10002E00E51F1460351460030200C9E52375F00A5C
:10003E00842430FB7D017F0112189CE52375F00AA4
:10004E0084E5F02430FB7D027F0112189C7B207D1D
:10005E00097F0112189C7B20805AE523D3940C4013
:10006E0026740C8523F0842430FB7D017F01121849
:10007E009CE52375F00C84E5F02430FB7D027F01B6
:10008E0012189C7B708024E52375F00C842430FBC1
:10009E007D017F0112189CE52375F00C84E5F02498
:1000AE0030FB7D027F0112189C7B617D097F01125E
:1000BE00189C7B6D7D0A7F0112189C7B3A7D037F15
:1000CE000112189CE52275F00A842430FB7D047F12
:1000DE000112189CE52275F00A84E5F02430FB7DB0
:1000EE00057F0112189C7B3A7D067F0112189CE554
:1000FE002175F00A842430FB7D077F0112189CE5E0
:10010E002175F00A84E5F02430FB7D087F0112187A
:10011E009CE52975F00A842430FB7D077F021218B6
:10012E009CE52975F00A84E5F02430FB7D087F02FA
:10013E0012189CE52675F00A842430FB7D097F0297
:10014E0012189CE52675F00A84E5F02430FB7D0A32
:10015E007F0212189C7B2F7D0B7F0212189CE525C7
:10016E0075F00A842430FB7D0C7F0212189CE52565
:10017E0075F00A84E5F02430FB7D0D7F0212189C89
:10018E007B2F7D0E7F0212189CE52475F00A8424C5
:10019E0030FB7D0F7F0212189CE52475F00A84E572
:1001AE00F02430FB7D107F0212189CE52714B40753
:1001BE0000505B9001CF75F003A4C58325F0C58375
:1001CE00730201E40201EC0201F40201FC020204DA
:1001DE0002020C0202147BFF7A16792A80367BFF0C
:1001EE007A16792E802E7BFF7A16793280267BFF47
:1001FE007A167936801E7BFF7A16793A80167BFF47
:10020E007A16793E800E7BFF7A16794280067BFF46
:10021E007A1679467D0E7F01120F0830B003020266
:10022E00B112182620B06874212554F806E554C37F
:10023E0094074003E4F554E521C3943C4003E4F5F0
:10024E0021E522C3943C4003E4F522E51FB40208E5
:10025E00E523B41803E4F523E51FB4010AE523D31F
:10026E00940C4003E4F523E524C394204003752445
:10027E0001E525C3940D4003752501E526C394635E
:10028E004003E4F526E527C394074003752701E5EF
:10029E0008C39432500A20B007121826050880EFC2
:1002AE00E4F50830B40302033B12182620B46A7436
:1002BE00212554F816E554C394074003E4F554E59C
:1002CE0021C39400500375213BE522C394005003D3
:1002DE0075223BE51FB4020AE523C3940050037553
:1002EE002317E51FB4010AE523C3940050037523B9
:1002FE000BE524C39400500375241FE525C3940019
:10030E00500375250CE526C394005003752663E54E
:10031E0027C394005003752707E508C39432500A8B
:10032E0020B407121826050880EFE4F50830B10353
:10033E0002002412182630B1030203DF0554E554DF
:10034E00C394074003E4F55474212554F8E6C3948E
:10035E003C4008E55494025002E4F6E51FB4021244
:10036E0074212554F8E6D394184007E554B40202DC
:10037E00E4F6E51FB4011274212554F8E6C3940C7B
:10038E004007E554B40202E4F674212554F8E6C39E
:10039E0094204007E554B40302E4F674212554F882
:1003AE00E6C3940D4007E554B40402E4F674212527
:1003BE0054F8E6C394634007E554B405027601741D
:1003CE00212554F8E6C394074007E554B406027697
:1003DE0001E508C39432500A20B107121826050809
:1003EE0080EFE4F508020024E55870030205AAE543
:1003FE005275F00A842430FB7D017F0112189CE5B2
:10040E005275F00A84E5F02430FB7D027F0112184C
:10041E009C7B207D097F0112189C7B207D0A7F0129
:10042E0012189CE55175F00A842430FB7D047F017F
:10043E0012189CE55175F00A84E5F02430FB7D0519
:10044E007F0112189CE55075F00A842430FB7D075D
:10045E007F0112189CE55075F00A84E5F02430FBFC
:10046E007D087F0112189C20B04612182620B02C51
:10047E0074502557F806E550C3943C4003E4F550FC
:10048E00E551C3943C4003E4F551E552B41803E43E
:10049E00F523E553D394014003E4F553E508C394E3
:1004AE0032500A20B007121826050880EFE4F5082E
:1004BE0020B44412182620B42A74502557F816E595
:1004CE0050C394005003E4F550E551C3940050031B
:1004DE0075513BE552C394005003755217E55370A6
:1004EE0002F553E508C39432500A20B407121826B9
:1004FE00050880EFE4F50820B15D12182620B143FF
:10050E000557E557D394034003E4F5577450255728
:10051E00F8E6C3943C4008E55794025002E4F674A2
:10052E00502557F8E6D394184007E557B40202E475
:10053E00F674502557F8E6D394014007E557B403F7
:10054E00027601E508C39432500A20B1071218262C
:10055E00050880EFE4F508E553B4011B7B457D0BE0
:10056E007F0112189C7B767D0C7F0112189C7B44B8
:10057E007D0D7F0112189CE55360030203F67B206C
:10058E007D0B7F0112189C7B207D0C7F0112189C25
:10059E007B207D0D7F0112189C0203F6E55065212C
:1005AE00701CE551B52217E552B52312E553B4017F
:0E05BE000D12185820B0FA12182620B0F422A0
:0105CC00220C
:0718AB00D288D2A8D2AF22BF
:0300030002116C7B
:10116C00C0E0C0F0C083C082C0D075D000C000C049
:10117C0001C002C003C004C005C006C00712182677
:10118C0020B2066355FF755400D007D006D005D0A9
:10119C0004D003D002D001D000D0D0D082D083D0E4
:0411AC00F0D0E0326D
:0718B200D28AD2AAD2AF22B4
:030013000211B027
:1011B000C0E0C0F0C083C082C0D075D000C000C005
:1011C00001C002C003C004C005C006C00712182633
:1011D00020B3066358FF755400D007D006D005D061
:1011E00004D003D002D001D000D0D0D082D083D0A0
:0411F000F0D0E03229
:0C1826007F017E267D82DDFEDEFADFF60B
:011832002293
:050006000000000000F5
:05157900036A543A0072
:1016A6007B007A00796A7D017F02120F087FC512DE
:0D16B60018787F43121882121749020D7830
:040D78008E088F0949
:100D7C00780A7C007D007BFF7A0079067E007F0577
:100D8C0012095AC3E5086480948050227FC212185D
:100D9C007875992D3099FDC2997F2D121882E5092D
:100DAC001509700215086309FF6308FF80127FC2E2
:100DBC001218787F2B12188275992B3099FDC299D5
:100DCC00AC08AD09EC1207D08F128E118D108C0F60
:100DDC00E4FFFE7DC87C40AB12AA11A910A80F122B
:100DEC0006C5E4FBFAF9783F1205D41208098E08FF
:100DFC008F09AE08AF097C277D101209AB7E037FEB
:100E0C00E8CFCDCFCECCCE1209AB8F0BAE08AF094D
:100E1C007C037DE81209AB7E007F64CFCDCFCECCB6
:100E2C00CE1209AB8F0C7FC3121878E50B2430FF60
:100E3C00121882E50B2430F5993099FDC2997FC4C4
:100E4C00121878E50C2430FF121882E50C2430F5CA
:060E5C00993099FDC299D6
:010E6200226D
:03157E00011F0248
:0C1833007F017E267D82DDFEDEFADFF6FE
:01183F002286
:100B3F0012153B20B60912183320B603751F01207A
:100B4F00B70912183320B703751F02E51F1460355C
:100B5F00146003020BF5E52375F00A842430FB7D46
:100B6F00017F0112189CE52375F00A84E5F024300B
:100B7F00FB7D027F0112189C7B207D097F011218DB
:100B8F009C7B20805AE523D3940C4026740C85233C
:100B9F00F0842430FB7D017F0112189CE52375F052
:100BAF000C84E5F02430FB7D027F0112189C7B70D2
:100BBF008024E52375F00C842430FB7D017F011226
:100BCF00189CE52375F00C84E5F02430FB7D027F43
:100BDF000112189C7B617D097F0112189C7B6D7D32
:100BEF000A7F0112189C7B3A7D037F0112189CE546
:100BFF002275F00A842430FB7D047F0112189CE5D6
:100C0F002275F00A84E5F02430FB7D057F01121870
:100C1F009C7B3A7D067F0112189CE52175F00A84B2
:100C2F002430FB7D077F0112189CE52175F00A84A3
:100C3F00E5F02430FB7D087F0112189C7B207D0B93
:100C4F007F0112189C7B207D0C7F0112189C7B204A
:0E0C5F007D0D7F0112189C7FF47E010217CEDE
:10164A0053756E004D6F6E005468650057656400EF
:10165A0054687500467269005361740045726F00E0
:100C6D00E52975F00A842430FB7D077F0212189C5C
:100C7D00E52975F00A84E5F02430FB7D087F02122A
:100C8D00189CE52675F00A842430FB7D097F02123D
:100C9D00189CE52675F00A84E5F02430FB7D0A7F6B
:100CAD000212189C7B2F7D0B7F0212189CE5257577
:100CBD00F00A842430FB7D0C7F0212189CE525750B
:100CCD00F00A84E5F02430FB7D0D7F0212189C7B29
:100CDD002F7D0E7F0212189CE52475F00A842430B6
:100CED00FB7D0F7F0212189CE52475F00A84E5F058
:100CFD002430FB7D107F0212189CE52714B40700E9
:100D0D00505B900D1D75F003A4C58325F0C583734D
:100D1D00020D32020D3A020D42020D4A020D52022F
:100D2D000D5A020D627BFF7A16794A80367BFF7A67
:100D3D0016794E802E7BFF7A16795280267BFF7AAC
:100D4D00167956801E7BFF7A16795A80167BFF7AAC
:100D5D0016795E800E7BFF7A16796280067BFF7AAC
:0B0D6D001679667D0E7F01120F082230
:1014A100C2A58F807F017E001214B2D2A77F057E74
:0114B100003A
:1014B200D3EF9400EE9400400F7DC77C01DCFEDD8B
:0814C200FAEF1F70EB1E80E839
:0114CA0022FF
:0A187800C2A7C2A61214A1C2A72243
:0A188200C2A7D2A61214A1C2A72229
:101730007F381218787F0C1218787F061218787F7D
:09174000011218787F800218786C
:1017CE00EF1FAA0670011E4A600BE4FDEDC394786C
:0517DE0050EE0D80F744
:0117E30022E3
:10123600E4F568F5698B658A668967AB65AA66A970
:1012460067120980602724D0FBE434FFFAAE68AF4A
:10125600697C007D0A120999EF2BF569EE3AF5686B
:1012660074012567F567E43566F56680CEAE68AF2E
:01127600690E
:011277002254
:0C184C0028312C31297E28322C3136291D
:1015A5007580FFC2A7C2A6D2A5D2A7000000000081
:1015B500AF800000000000C2A70000000000EF207F
:0215C500E7DE5F
:0115C7002201
:1016DF00AE071215A5C2A7C2A6C2A58E80D2A700BB
:0C16EF0000000000C2A700000000002264
:1016FB00AE071215A5C2A7D2A6C2A58E80D2A7008F
:0C170B0000000000C2A700000000002247
:1013ED007F381216DF7F017E001217CE7F01121695
:1013FD00DF7F017E001217CE7F061216DF7F017E82
:10140D00001217CE7F0C1216DF7F017E000217CE61
:081124008B5F8A6089618D6216
:10112C007F401216DFE4F564E564C395625030E449
:10113C00F563E56475F008A4AB5F2561F9E56035EE
:10114C00F0FA7E00E92563F9EE3AFA120980FF12F3
:0F115C0016FB0563E563C3940840D7056480C99B
:01116B002261
:1017F700EDBF0105247FFC800324BFFCAF04021664
:01180700DF01
:08189C001217F7AF030216FB5F
:0A0F08008F098D0A8B0B8A0C890DEE
:100F120078137C007D007BFF7A18794C7E007F0C71
:100F220012095AE509C394014015E509D394025008
:100F32000EE50AC394014007E50AD39410401D90C0
:100F42000000AF82EF04FD74132FF8E6FB7F01125D
:100F5200189CA3E582640C458370E72285091185FC
:100F62000A12850B0E850C0F850D10AB0EAA0FA968
:100F720010120980FB602CAD12AF1112189C740183
:100F82002510F510E4350FF50F0512E512D3941074
:100F920040D97512010511E511D3940240CD7511A6
:030FA2000180C803
:010FA5002229
:1005CD00020875E86480F8E933E83360110460F0DF
:1005DD00ED33EC337009E8FCE9FDEAFEEBFF220494
:1005ED0060DED3EB9FEA9EE99DE8C2E78CF0C2F78F
:1005FD0095F0400CE8CCF8E9CDF9EACEFAEBCFFB5B
:10060D0012084085D0F05804700320D5B3E804706B
:10061D00075002B2D502087F92D5EC0460F7E4CC06
:10062D00C0E0C398F8603B94186008400DD0E0FB23
:10063D00020857E4FBFAC9FC8028E830E406E4C957
:10064D00FBE4CAFCE830E305E4C9CACBFCE8540777
:10065D006010F8C3E913F9EA13FAEB13FBEC13FC82
:10066D00D8F130F52FC3E49CFCEF9BFFEE9AFEED25
:10067D0099FDD0E0FBEF4E4D4C701222DB030208CA
:10068D007CEC2CFCEF33FFEE33FEED33FDED30E76C
:10069D00EB020857EF2BFFEE3AFEED39FDD0E0FBF4
:1006AD0050130BBB000302087FED13FDEE13FEEF9D
:0806BD0013FFEC13FC020857C7
:1006C500EC4D6011E8497017ED33EC3304600DE42F
:1006D500FCFFFEFD22E933E8330470F802087512C9
:1006E500084058046009E4CC2481500628500902CA
:1006F500087F28400302087CC0E0EB4A7044B980BB
:1007050006D0E0FB02086BEF4E701CBD8008EBFFC6
:10071500EAFEE9FD80EBE98DF0A4FEE5F00207AE07
:10072500E9CDF9EAFEEBFFEF89F0A4FCE5F0CE890F
:10073500F0A42EFFE435F0CD89F0A42DFEE435F0CC
:100745008067EF4E7005BD80D780C3EF8BF0A4ACFA
:10075500F0EE8BF0A42CFCE435F0F8EF8AF0A42C35
:10076500E5F038FCE433CB8DF0A42CFCE5F03BF848
:10077500EE8AF0A42CFCE5F038F8E433CF89F0A438
:100785002CFCE5F038CF3400CE89F0A42FFFE5F03E
:100795003EFEE433C98DF0A42EFEE5F039CD8AF096
:1007A500A42FFFE5F03EFEE43DFD33D0E0FB50070E
:1007B5000BBB000F02087FEC2CFCEF33FFEE33FE82
:0607C500ED33FD020857B0
:1007CB0075F020800E75F010800575F0087D007EA9
:1007DB00007F003392D530D503120AAFEC334010B3
:1007EB00EF33FFEE33FEED33FDEC33FCD5F0ED22B2
:0E07FB00E5F0247EA2D513CC92E7CDCEFF22EE
:10080900EDD2E7CD33EC3392D524814006E4FFFEE7
:10081900FDFC22FCE4CFCECDCC24E0501174FF8046
:10082900EDC3CC13CCCD13CDCE13CECF13CF0470E3
:07083900F030D5DE020AAF2A
:10084000E9D2E7C933E833F892D5EDD2E7CD33ECFE
:0708500033FC5002B2D52277
:10085700EC30E7100FBF000C0EBE00080DBD000402
:100867000BEB6014A2D5EB13FCED92E7FD2274FFAE
:10087700FCFDFEFF22E480F8A2D574FF13FC7D8007
:03088700E480EF1B
:100FB2000212F3E493A3F8E493A34003F68001F250
:100FC20008DFF48029E493A3F85407240CC8C33340
:100FD200C4540F4420C8834004F456800146F6DF0F
:100FE200E4800B010204081020408090155FE47E2B
:100FF200019360BCA3FF543F30E509541FFEE49304
:10100200A360010ECF54C025E060A840B8E493A3CA
:10101200FAE493A3F8E493A3C8C582C8CAC583CAF5
:10102200F0A3C8C582C8CAC583CADFE9DEE780BEAD
:011581000069
:10088A00E709F608DFFA8046E709F208DFFA803E50
:10089A0088828C83E709F0A3DFFA8032E309F6083D
:1008AA00DFFA8078E309F208DFFA807088828C83A5
:1008BA00E309F0A3DFFA806489828A83E0A3F60859
:1008CA00DFFA805889828A83E0A3F208DFFA804C33
:1008DA0080D280FA80C680D4806980F2803380100A
:1008EA0080A680EA809A80A880DA80E280CA803373
:1008FA0089828A83ECFAE493A3C8C582C8CCC583EB
:10090A00CCF0A3C8C582C8CCC583CCDFE9DEE780BA
:10091A000D89828A83E493A3F608DFF9ECFAA9F039
:10092A00EDFB2289828A83ECFAE0A3C8C582C8CC8F
:10093A00C583CCF0A3C8C582C8CCC583CCDFEADEA8
:10094A00E880DB89828A83E493A3F208DFF980CC0A
:10095A0088F0EF60010E4E60C388F0ED2402B40403
:10096A000050B9F582EB2402B4040050AF232345AA
:06097A0082239008DA73ED
:10098000BB010689828A83E0225002E722BBFE0275
:09099000E32289828A83E49322A8
:10099900EF8DF0A4A8F0CF8CF0A428CE8DF0A42E72
:0209A900FE222C
:1009AB00C2D5EC30E709B2D5E4C39DFDE49CFCEE67
:1009BB0030E715B2D5E4C39FFFE49EFE120AEAC3EB
:1009CB00E49DFDE49CFC8003120AEA30D507C3E4E6
:0609DB009FFFE49EFE22D6
:1009E10075F008758200EF2FFFEE33FECD33CDCCCD
:1009F10033CCC58233C5829BED9AEC99E582984050
:100A01000CF582EE9BFEED9AFDEC99FC0FD5F0D62C
:100A1100E4CEFBE4CDFAE4CCF9A88222B800C1B956
:100A21000059BA002DEC8BF084CFCECDFCE5F0CB94
:100A3100F97818EF2FFFEE33FEED33FDEC33FCEBCD
:100A410033FB10D703994004EB99FB0FD8E5E4F988
:100A5100FA227818EF2FFFEE33FEED33FDEC33FC75
:100A6100C933C910D7059BE99A4007EC9BFCE99A69
:100A7100F90FD8E0E4C9FAE4CCFB2275F010EF2FAE
:100A8100FFEE33FEED33FDCC33CCC833C810D707AE
:100A91009BEC9AE899400AED9BFDEC9AFCE899F8E9
:0E0AA1000FD5F0DAE4CDFBE4CCFAE4C8F9227C
:0E0AAF00C3E49FFFE49EFEE49DFDE49CFC2258
:100ABD00EC8EF0A4CCC5F0CCCDF8EFA4CEC5F02DC6
:100ACD00FDE43CFCE8A42EC8C5F03DFDE43CFCEF84
:0D0ADD00A4FFE5F028FEE43DFDE43CFC2212
:100AEA00BC000BBE0029EF8DF084FFADF022E4CCF0
:100AFA00F875F008EF2FFFEE33FEEC33FCEE9DECB9
:100B0A00984005FCEE9DFE0FD5F0E9E4CEFD22EDFE
:100B1A00F8F5F0EE8420D21CFEADF075F008EF2F48
:100B2A00FFED33FD4007985006D5F0F222C398FD39
:050B3A000FD5F0EA22D6
:00000001FF
